:020000040800F2
:1000000090F5002039030008B9360108F50C010805
:1000100065360108AD2A0008217A010800000000B9
:100020000000000000000000000000008102000845
:100030000D63000800000000D5020008D564010827
:100040005303000853030008530300085303000838
:100050005303000853030008530300085303000828
:100060005303000853030008530300085303000818
:100070005303000853030008530300085303000808
:100080005303000853030008DD220008530300084F
:1000900053030008530300085303000853030008E8
:1000A00053030008530300085303000853030008D8
:1000B00053030008530300085303000853030008C8
:1000C00053030008530300085303000853030008B8
:1000D00053030008D17701085303000853030008B5
:1000E0005303000853030008530300085303000898
:1000F000FD6A010853030008530300085303000876
:1001000053030008614A0108530300085303000821
:10011000530300085303000853030008456A01080D
:10012000530300085303000853030008293500084F
:100130005303000853030008530300085303000847
:100140005303000853030008530300085303000837
:100150005303000853030008530300085303000827
:100160005303000853030008530300085303000817
:100170005303000853030008530300085303000807
:1001800053030008530300085303000853030008F7
:1001900053030008530300085303000853030008E7
:1001A00009320108530300081D3500084B1C012BC0
:1001B00098BF70472DE9F003911C9B08B1F80480AB
:1001C000B1F802900A8831F802CC8044814402449C
:1001D0008444D9F80070D8F800601568DCF8004055
:1001E000C9F80060C8F80070CCF800501460D9F865
:1001F0000470D8F804605568DCF80440C9F804605D
:10020000C8F80470CCF80450546008315B1ED5D196
:10021000BDE8F00370474B1C012B98BF70472DE9D8
:10022000F003911C9B08B1F80480B1F802900A8891
:1002300031F802CC00EB580800EB590900EB5202F0
:1002400000EB5C0CD9F80070D8F800601568DCF899
:100250000040C9F80060C8F80070CCF80050146085
:1002600008315B1EDFD1BDE8F0037047DFF80CD02A
:1002700001F014FE00480047AD8E020890F5002002
:100280002A4B19680868B0E8F04F80F30988BFF37B
:100290006F8F4FF0000080F311887047000000005E
:1002A00006480068006880F3088862B661B6BFF34C
:1002B0004F8FBFF36F8F00DF00BF00BF08ED00E07E
:1002C000DFF80C00016841F470010160704700BF65
:1002D00088ED00E0EFF30980BFF36F8F134B1A68CE
:1002E0001EF0100F08BF20ED108A20E9F04F1060BB
:1002F00008B44FF0100080F31188BFF34F8FBFF3A5
:100300006F8F2AF0D9F94FF0000080F3118808BCF4
:1003100019680868B0E8F04F1EF0100F08BFB0EC85
:10032000108A80F30988BFF36F8F704704040020A0
:10033000EFF30580704700000648804706480047F5
:10034000FEE7FEE7FEE7FEE7FEE7FEE7FEE7FEE785
:10035000FEE7FEE7856501086D0200089FED3D0A96
:100360005FEA920C57D000BFD0ED000A90ED011A61
:100370000B1D60EEA00A083041EE010AF5EEC00A3E
:10038000F1EE10FAA6BFB1EEE01A81ED001A81ED90
:10039000000AD0ED000A90ED011A191D60EEA00AC6
:1003A000083041EE010AF5EEC00AF1EE10FAA6BFE0
:1003B000B1EEE01A83ED001A83ED000AD0ED000AD9
:1003C00090ED011A0B1D60EEA00A083041EE010A03
:1003D000F5EEC00AF1EE10FAA6BFB1EEE01A81ED1B
:1003E000001A81ED000A90ED001AD0ED010A191DE6
:1003F00021EE011A083000EEA01AB5EEC01AF1EE97
:1004000010FAA6BFF1EEC10AC3ED000A83ED000A9F
:10041000BCF1010CA8D112F0030208BF704700BF65
:10042000D0ED000A90ED011A0B4660EEA00A091DFE
:10043000083041EE010AF5EEC00AF1EE10FAA6BF4F
:10044000B1EEE01A83ED001A83ED000A521EE7D1E7
:1004500070470000000000002DE9F00F6FF003046A
:100460002DED0C8B5FEAD30AD0E901C7B0F80090FC
:1004700004EB89040CEB04089FEDFE9A18BF4FEAC9
:10048000D90B00F0C18100BF91ED000AB0EE493AEE
:1004900088ED000A91ED010AF0EE430A88ED010AA9
:1004A00091ED020AB0EE431A88ED020A91ED030ABB
:1004B000F0EE431A88ED030A91ED040AB0EE432AE8
:1004C00088ED040A91ED050AF0EE432A88ED050A4D
:1004D00091ED060AF0EE433A88ED060A91ED070A1F
:1004E000203188ED070ADCED007A9CED017ADCED25
:1004F000026A9CED036ADCED045A9CED055ADCEDC2
:10050000064AB0EE434A3D460CF11C0408F12008AF
:100510005FEA0B0600F02681D5ED008A94ED008A93
:1005200026EE280A65EEA89A25EE28AA27EEA8BA94
:1005300064EEA8AA67EE28BA26EEA8CA68EE28CA12
:10054000D5ED018A32EE000A32EEA92A73EE0A2AAC
:1005500030EE8BBA33EEAA3AD5ED020A74EE2C3A9D
:1005600071EE8C1AD4ED017A31EE2B1A27EE28DACF
:1005700026EEA8CA66EE28BA25EEA84A65EE289AA5
:1005800024EEA8AA68EE28AA67EEA8CA94ED027A1B
:100590007BEE0D8A31EE0C1A71EEAB1A30EE040AC6
:1005A00032EE292A72EE8A2A33EE2A3A73EEAC3AF8
:1005B00066EEA0CA66EE20BA65EEA09A25EE20AAE5
:1005C00024EEA04A68EE20AA27EEA0BA27EE20CAA1
:1005D000D5ED030AD4ED036A30EE0A0A32EE042A9E
:1005E00078EEAC8A31EE2B1A71EEA91A72EEAA2AB5
:1005F00033EE0B3A73EE8C3A66EE20CA65EEA0BA83
:1006000065EE209A24EEA04A28EE20AA67EEA0AA62
:1006100027EE20BA26EEA0CAD5ED040A78EEAC8A01
:1006200031EE2B1A71EEA91A30EE040A32EE0A2AC4
:1006300072EEAA2A33EE0B3A73EE8C3A65EEA0CA3C
:1006400094ED046A65EE20BA24EEA0BA28EE204AA2
:1006500067EEA09A27EE20AA66EEA0AA26EE20CA90
:10066000D5ED050AD4ED055A31EE2B1A71EE8B1A31
:1006700078EEAC8A30EE040A32EE292A72EE8A2A2B
:1006800033EE2A3A73EE8C3A65EE20CA24EEA0BA15
:1006900068EE20BA27EEA04A67EE209A26EEA0AABE
:1006A00066EE20AA25EEA0CAD5ED060A30EE040AB1
:1006B00032EE292A27EE204A94ED065A72EE8A2A53
:1006C00066EEA09A78EEAC8A31EE0B1A71EEAB1A98
:1006D00033EE2A3A73EE8C3A26EE20AA65EEA0AAF3
:1006E00064EEA0BA28EE20CA27EEA0BA65EE20CAB2
:1006F000D5ED070A30EE040A32EE294A72EE8A9AE4
:1007000033EE2AAAD4ED074A31EE0C1A78EEAB8A02
:1007100028EE20CA71EE8B1A73EEACAA66EE202A80
:1007200067EEA0BA27EE20BA26EEA02A25EEA03A60
:1007300065EE203A24EEA08A74EE222A78EE8C0A26
:1007400031EE2B1A71EE8B1A30EE022A39EE833A13
:100750007AEE233A3AEE884A20342035761E7FF42A
:10076000DBAE00BF19F0070636D000BF95ED008A5A
:1007700094ED000A241D67EE889A67EE088A26EE3B
:1007800088AA66EE08AA25EE88BA65EE08BA24EEB5
:1007900088CA20EE088AF0EE477AB0EE667AF0EE6C
:1007A000466AB0EE656AF0EE455A70EEA90A31EE7F
:1007B000281A71EE8A1A32EE2A2A72EE8B2A33EE4A
:1007C0002B3A73EE8C3A34EE084AB0EE645A2D1D83
:1007D000F0EE404A761EC9D1C2ED000A82ED011A40
:1007E000C2ED021A82ED032AC2ED042A82ED053A17
:1007F000C2ED063A82ED074A2032BAF1010A0CF145
:10080000200C7FF441AE00BF13F0070A43D000BFB5
:10081000B1EC010A3E1D0CF10404B9F10103A8EC8E
:10082000010ADCED000A97ED001AB0EE490A00EE6D
:10083000810A29D0B3F1004F7DD2002B24DD251F82
:10084000341F13F0010F07D0D5ED010A94ED011A02
:10085000241D2D1D00EE810A5B1015D0D5ED010A77
:1008600094ED011A00EE810AD5ED020A94ED021A08
:1008700002E000000000000000EE810A5B1E04F1AF
:10088000080405F10805E9D1A2EC010ABAF1010A50
:100890000CF1040CBCD14068A9F10104A3081FD0DD
:1008A000B3F1004F54D2002B1ADD624601461D46BB
:1008B00092ED000A81ED000A92ED010A81ED010A34
:1008C00092ED020A81ED020A92ED030A103281EDE7
:1008D000030A10316D1EEBD10CEB031C00EB03106F
:1008E00014F0030202BFBDEC0C8BBDE8F00F7047A3
:1008F000B2F1004F42D2002A1ADD001FACF1040110
:1009000012F0010F05D091ED010A80ED010A001DE2
:10091000091D52080CD000BF91ED010A80ED010ABB
:1009200091ED020A083180ED020A0830521EF3D11F
:10093000BDEC0C8B00E002E0BDE8F00F7047F4EC7A
:10094000010A5B1EB6EC011A00EE810AF7D19BE7A3
:100950009CED000A80ED000A9CED010A80ED010A81
:100960009CED020A80ED020A9CED030A0CF1100CCA
:1009700080ED030A10305B1EEAD1B1E7BCEC010A3E
:10098000521EA0EC010AF9D1D2E770B504460498D2
:10099000218008448000011F1D461846A26000F017
:1009A000FCFF656070BD91ED000AD1ED010AD0F841
:1009B00014C030EE001A70EEA00A0088B6EE000AED
:1009C000431E71EE201A71EE600A0CF1080001EB73
:1009D000C30C61EE801A60EE800A0831C2ED001A85
:1009E000C2ED010A08329CED003A91ED001ADCEDEF
:1009F000010AD1ED011A73EE413AD0ED002A90EDD3
:100A0000012A30EEA14A62EEA34A31EE031A62EEE9
:100A1000233A71EEE00A22EE042A31EE241A62EE45
:100A2000842A70EEA30A083031EE021A083170EE03
:100A3000E20AACF1080C21EE001A60EE800A82EDA9
:100A4000001AC2ED010A08325B1ECCD17047D1ED0D
:100A5000000A91ED011AD0F814C0008870EE811AD6
:100A600070EEC10AB6EE000A431E61EE801A60EE17
:100A7000800A0CF10800C2ED001AC2ED010A01EB78
:100A8000C30C01F1080102F1080208BF7047DCED58
:100A9000010A9CED003A91ED002A91ED011A90EDCA
:100AA000004A72EE431AD0ED013A71EE202A32EE7E
:100AB000032A64EE214A63EEA11A71EE600A23EE66
:100AC000A25A32EE642A64EE222A70EEA10A08309D
:100AD00032EE452A083170EEE20AACF1080C22EE43
:100AE000002A60EE800A82ED002AC2ED010A083277
:100AF0005B1ECCD170472DE9F0410446008A1D00F1
:100B00004FEA500016460F4620800AD02046FFF7D5
:100B10009EFF2A4631462046BDE8F041012300F001
:100B200001BC01232A46204600F0FCFB3246394630
:100B30002046BDE8F04136E74A08002302800182E2
:100B4000B2F5807F31D008DC102A4FD0202A45D062
:100B5000402A3BD0802A31D008E0B2F5007F1BD07C
:100B6000B2F5806F0FD0B2F5006F03D04FF0FF33B6
:100B7000184670474FF46E628281214A8260214A92
:100B80002149426039E04FF4E16282811F4A82606C
:100B90001F4A2049426030E04FF4E07282811E4AD1
:100BA00082601E4A1E49426027E04FF4DC72828157
:100BB0001C4A82601C4A1D4942601EE0D02282818C
:100BC0001B4A82601B4A1C49426016E0382282811F
:100BD0001A4A82601A4A1B4942600EE03022828122
:100BE000194A8260194A1A49426006E01422828139
:100BF000184A8260184A194942604161B8E700000A
:100C0000E8B10508505A0508280F0608D8A30508BA
:100C1000503A050828EF050858A00508502A05088D
:100C200028DF0508E89C05085022050828D7050894
:100C3000489B0508501E050828D30508D89A0508C2
:100C4000501C050828D10508789A0508501B05088E
:100C500028D00508509A0508D01A0508A8CF05081D
:100C60009FED391A10B4B0EE410A5FEA910C1ED024
:100C7000BCF1004F4CD2BCF1000FC4BF0346644628
:100C800015DD00BFD3ED000A00EEA00AD3ED010A86
:100C900000EEA00AD3ED020A00EEA00AD3ED030A8B
:100CA0001033641E00EEA00AECD100EB0C1011F022
:100CB00003031AD0B3F1004F3FD2002B15DD001F04
:100CC00013F0010F04D0D0ED010A001D00EEA00AC0
:100CD0005B080AD0D0ED010A00EEA00AD0ED020AAE
:100CE00008305B1E00EEA00AF4D100EE901AF8EE78
:100CF000601AC0EE210AF5EEC00AF1EE10FAA6BFA6
:100D0000B1EEE00A82ED000A82ED001A10BC7047D5
:100D1000D0ED000A00EEA00AD0ED010A00EEA00A14
:100D2000D0ED020A00EEA00AD0ED030A1030BCF1AB
:100D3000010C00EEA00AEBD1B9E7F0EC010A5B1E52
:100D400000EEA00AF9D1D0E7000000002DE9F04143
:100D500006462DED028B8C460088736801EB8004FB
:100D60004508274601EB850004EB85025FEA9508FC
:100D70007DD000BFD1ED003AD4ED001A91ED012AEB
:100D800094ED013A73EEA16A91ED024A91ED031AD6
:100D9000D4ED022AD4ED035A90ED008A90ED017A49
:100DA00090ED020A90ED036A92ED005AD2ED014AED
:100DB000D2ED027AD2ED030AC1ED006A72EE036A47
:100DC00073EEE13A74EEC71AC1ED016A74EE226A5D
:100DD00074EE622A37EEC04AC1ED026A71EE256AEE
:100DE000C1ED036A72EE436A31EE652A38EE051AE8
:100DF00035EE483A80ED001A37EE241A80ED011ADC
:100E000030EE271A80ED021A36EE201A80ED031A12
:100E100030EEC61A93ED000AD3ED010A63EE804A64
:100E200026EEA05A66EE805A63EEA03A74EE854A2A
:100E300075EEE33AC4ED004A63EE204AC4ED013A90
:100E400061EE803A61EEA00A23EE000A74EEE31A26
:100E500030EE800AC2ED001A82ED010A93ED020A1B
:100E6000D3ED030A62EE803A22EE203A00E024E05D
:100E700062EEA01A22EE002A73EE832A103010319F
:100E800072EE611AC4ED022A24EE202AC4ED031A80
:100E900061EE001A61EE200A24EE000A103332EEF1
:100EA000611A103430EE800A82ED021A82ED030AD4
:100EB0001032B8F101087FF45DAF29460223604685
:100EC000726800F0D5FA72682946BDEC028B38468C
:100ED000BDE8F041022300F0CBBA2DE9F34F2DED30
:100EE000048B87B00B980088470801EB870000EB64
:100EF000870606EB8705CDE90056DDF82C80A5F1C5
:100F0000040C0CEB8703CDE902014FEA5709D8F82E
:100F100004800427CDE90497D1ED000A96ED000A7C
:100F200090ED011A95ED013A70EE802A70EEC03A0C
:100F3000D1ED010A96ED010A041F321F30EE802A1E
:100F400070EEC01A31EE230AD0ED000A32EE415A9B
:100F500033EEC11A30EE434A71EEE04A95ED000AD5
:100F600070EEA11A35EE435A74EE805A72EEE04AE2
:100F700070EEA20A71EEC01A31EE031A74EEC04A86
:100F800030EE800A062708F1080A81ED000A90ED8C
:100F9000010AD5ED010A08F1100B30EE020A08F142
:100FA000180830EE200A81ED010A80ED004AC0EDFC
:100FB000015AC6ED004A86ED015A85ED001AC5EDCD
:100FC000011ADDF810900830083108350836A9F10B
:100FD00002095FEA590900F0078100BFD1ED000A5C
:100FE00096ED000AD0ED011AD5ED014A30EE802AC7
:100FF00030EEC05AD1ED010A96ED010A70EE802A5A
:1010000030EEC01A31EE850AD5ED000A30EE644AA2
:1010100090ED000A31EE403A30EE011A73EE205A9C
:1010200032EE403A30EE020A31EE601A73EE603A68
:1010300030EE200A32EEE13A75EE611A81ED000AD7
:1010400090ED010AD5ED010A33EE643A30EE220A42
:1010500071EEA41A30EE200A81ED010AD4ED002AC7
:10106000DCED004A54ED010A1CED010A32EEA47ACF
:1010700032EEE49A72EEE42A52ED018A70EE807A42
:1010800030EEC02A72EEE82AD2ED000A93ED000A93
:1010900013ED018A30EEC05A72EE886A77EEE82AC4
:1010A00035EE026A32EEC85A77EE602A72EEC04A16
:1010B00070EEC02A70EE870A72EEC22A30EE800A05
:1010C00038EE682A84ED000A12ED010A53ED010A98
:1010D00032EE492A30EE270A30EE200A04ED010AEA
:1010E0009AED000ADAED010A64EE007A25EEA07AA4
:1010F00065EE805A24EE204A37EE877A35EEC44AF0
:1011000080ED007A80ED014A26EEA04A66EE005A94
:1011100066EE200A26EE800A083034EE654A083171
:1011200030EE800A82ED004A083C02ED010A9BED98
:10113000000ADBED010ADDF814E023EE804A63EEDD
:10114000205A23EE003A63EEA03A083A34EE254ADC
:101150000BEB8E0B33EE633A86ED004A0AF1080A78
:1011600086ED013AB1EE643A083663EE003A25EEB8
:10117000203A25EE000A64EEA00A33EEC33A30EEC0
:10118000C00A8CED003A0CED010A98ED000AD8ED8A
:10119000010A08EB870861EE803A21EE203A21EE41
:1011A000001A61EEA01AACF1080C33EE833A31EE6E
:1011B000611A85ED003A62EE801A85ED011A22EE81
:1011C000201A62EEA00A22EE000A083531EE611AFA
:1011D00030EE800A83ED001A03ED010A083BB9F1F5
:1011E00001097FF4FBAE00BFD1ED000A96ED000AC5
:1011F00091ED011AD0ED015A30EE802A70EEC00A4E
:1012000096ED010A95ED015A042371EE001A71EE74
:10121000404A35EEA00A90ED001A31EEE54A70EE34
:10122000E50A30EE453A95ED000A34EE454A30EED7
:10123000855A74EEC12A72EE413A71EE240A31EEFB
:10124000021A72EE802A73EEC03A70EEC00A31EED6
:10125000000A81ED000A90ED010A95ED011A30EEC9
:10126000210A30EE010A81ED010A9AED000A9AED99
:10127000011A63EE001A22EE812A22EE800A23EE82
:10128000011A71EE821A30EE410AC0ED001A80EDAB
:10129000010A9BED000A9BED011A63EE801A24EE11
:1012A000012A24EE000A23EE811A71EE821A30EE32
:1012B000410AC6ED001A86ED010A98ED010A98ED83
:1012C000001A60EE801A25EE012A60EE810A25EEF2
:1012D000000A32EE211A30EEC00A85ED001A85EDC3
:1012E000010A0B984268DDE9030100F0C1F80B9890
:1012F000042304994268029800F0BAF80B9804237A
:1013000004994268019800F0B3F80B9804990423FB
:101310004268009807B0BDEC048B02B0BDE8F04F06
:1013200000F0A6B82DE9F0410488984617460D460E
:101330000646012A20D1281DF4B1A0F1080114F0BD
:10134000010F06D091ED020AB1EE400A81ED020ACA
:1013500008315FEA540C0FD091ED020AB1EE400A59
:1013600081ED020A91ED040AB1EE400A81ED040A12
:101370001031BCF1010CEFD1B4F5807F1BD008DC3B
:10138000102C13D0202C16D0402C19D0802C0DD02E
:101390001CE0B4F5007F13D0B4F5806F06D0B4F52F
:1013A000006F08D0B4F5805F0AD00FE029463046C0
:1013B000FFF7CCFC0AE029463046FFF78EFD05E03A
:1013C000214601232846726800F052F8B8F1000F58
:1013D00004D0B1892846B268FEF7E8FE012F18BF95
:1013E000BDE8F08100EE104AB7EE001A002CF8EECE
:1013F000400A81EE200A08BFBDE8F081A5F108008F
:1014000014F0010F0ED0D0ED020A60EE800AC0ED9C
:10141000020AD0ED030AF1EE600A60EE800AC0ED28
:10142000030A0830610808BFBDE8F081D0ED020A68
:1014300060EE800AC0ED020AD0ED030AF1EE600A08
:1014400060EE800AC0ED030AD0ED040A60EE800A67
:10145000C0ED040AD0ED050AF1EE600A60EE800AE4
:10146000C0ED050A1030491EE0D1BDE8F081000052
:101470002DE9FF4F2DED108B82B09FEDFEFA0B464C
:101480001C46DB084FF0000C0CEB030505EB0308D2
:1014900008EB030909EB030606EB030A00EBCC0794
:1014A00000EBC60697ED001AD6ED000A0AEB030B17
:1014B00000EBC50500EBCA0A31EE200A71EE601A96
:1014C00095ED002ADAED000A0BEB030E00EBC808DD
:1014D00032EE201A00EBCB0B32EE602AD8ED002A58
:1014E000DBED000A00EBC90900EBCE0E99ED003AE6
:1014F0009EED004A72EEA03A72EEE02A73EE040A04
:1015000033EE443A70EE636A70EE233A31EE600ACD
:1015100071EE200A33EEA01A73EEE00A87ED001A8E
:10152000C6ED000A97ED011AD6ED010AD5ED013A94
:1015300098ED014A31EE206A71EE600A9AED011AC7
:1015400099ED015A73EE814A73EEC13A9BED011A8F
:1015500034EE017A34EE411A9EED014A75EE045ADA
:1015600035EE444A36EE475A36EE076A34EEE57AEF
:1015700074EEA54A76EE245A76EE644AC7ED015A17
:10158000C6ED014A76EE874AC8ED004A76EEC74AB4
:10159000CBED004A75EE404A35EE000AC8ED014A2F
:1015A0008BED010A32EE430A32EE032A20EE0F0AD7
:1015B00062EE0F4A33EEC42AA4448C4522EE0F3A61
:1015C00033EE842A30EEC34A62EE0F3A30EE833AAD
:1015D00031EEC02A31EE800A71EE630A31EE231A31
:1015E00072EEE41A72EEA42A70EE013A30EE410A6D
:1015F000C5ED003A8EED000A32EE200A8AED000AAF
:1016000032EE600A89ED000A33EE620A85ED010AC6
:1016100033EE220A8EED010A34EE610A8AED010AE8
:1016200034EE210A89ED010AFFF42EAF082B3FBFEB
:1016300002B0BDEC108B04B0BDE8F08F4FF0000C91
:10164000CDF804C04FF0010CCDF800C0DDF804C0A7
:10165000159DAC444FEA8C0505EB0C07CDF804C092
:1016600007EB0C094FEA4C0808EB0C0609EB0C0AD7
:1016700002EBCC0C02EBC80802EBC60602EBC50578
:1016800002EBC70702EBC90902EBCA0A9CED00DABC
:101690009CED018AD8ED00CA96ED00CAD5ED00BADE
:1016A00097ED00BAD9ED00AADAED008AD8ED017AFB
:1016B00096ED01AA95ED017AD7ED016A99ED016ADF
:1016C000DAED019ADDF800C00CEB0307FD1805EB1D
:1016D000030A0AEB030808EB030606EB030B00EB17
:1016E000CC0900EBC808D9ED000A98ED000A00EB20
:1016F000C70700EBC606D7ED001A96ED001A70EE8C
:10170000803A0BEB030E70EEC00A31EE810A00EB5B
:10171000C50500EBCB0B31EEC11AD5ED001A9BEDE0
:10172000002A00EBCA0A00EBCE0E31EE824A71EEBF
:10173000C21A9AED002ADEED002A32EE223A32EE8B
:10174000622A73EEC42A73EE843A30EE435A30EEC6
:10175000030A33EE803A73EEC0DA89ED003A99ED70
:10176000010A98ED013AD7ED013A95ED014A70EE84
:1017700003EA30EE433A96ED010A9AED01EADEED16
:10178000014A33EE809A73EEC03A9BED010A74EE83
:10179000005A34EE404A3EEE240A7EEE644A3EEEA3
:1017A000E5EA7EEEA55A79EE40EA39EE009A32EE8D
:1017B000AE0A72EEEE2A75EE89EA35EEC99A7EEE31
:1017C000455AC9ED01EA3EEE055A2BEEADEA67EE49
:1017D00009EA2BEE899A67EE2DDA3EEE2EEA39EE13
:1017E0006D9A88ED00EA67EEA5DA88ED019A2CEE95
:1017F000809A6CEEA55A27EE800A39EE2D9A35EEC6
:10180000C00A85ED009A66EE055A85ED010A2AEEBA
:10181000A20A2AEE855A66EE222A30EE250A8BEDC0
:10182000000A35EE620A73EEA42A8BED010A31EE4E
:10183000420A31EE021A33EEE42A62EE8F3A20EECB
:101840000F0A21EE0F1A22EE0F2A70EEC02A30EE98
:10185000800A71EEC10A71EE811A33EE421A33EE3C
:10186000022A34EE633A34EE234A70EE043A30EE44
:10187000444A01E0F304353F72EE834A72EEC32A14
:1018800032EE613A32EE210A71EE601A71EE200AF0
:101890002DEE232A28EE031A2DEE033A68EE233AA2
:1018A000A44432EE011A28EE842A8C4587ED001AF2
:1018B00033EE631A29EE843A87ED011A29EE801A75
:1018C00028EE800A32EE011A30EE430A26EEA42AF0
:1018D0008EED001A8EED010A2BEE240A26EEA11AD7
:1018E0006BEE211A30EE010A2CEE221A86ED000A68
:1018F00031EEC20A6AEE221A86ED010A2AEE200AA9
:101900006CEE200A31EE000A8AED000A30EEE10AA0
:101910008AED010AFFF4D8AEDDF800C00CF1010C2D
:10192000CDF800C063453FF691AEDDF854C04FF6E8
:10193000FF7404EACC0CCDF854C0072B3FF6A0ADE1
:1019400002B0BDEC108B04B0BDE8F08F10B5431AA7
:10195000934209D28318881803E010F8011D03F898
:10196000011D521EF9D210BD40EA01039B0703D0AE
:1019700009E008C9121F08C0042AFAD203E011F8CE
:10198000013B00F8013B521EF9D210BDD2B201E07A
:1019900000F8012B491EFBD270470022F6E710B574
:1019A00013460A4604461946FFF7F0FF204610BDCD
:1019B000421C10F8011B0029FBD1801A7047034616
:1019C00011F8012B00F8012B002AF9D118467047B5
:1019D00000F0004230F000400AD0C10D01F5607106
:1019E000C0F3160042EA0151C20840071143704794
:1019F00000200146704701F0004330B421F000415F
:101A000050EA010206D00A0DA2F56072C1F313017B
:101A1000002A02DC30BC00207047440F44EAC104B5
:101A2000C100E01830BC00EBC25000F047B830B540
:101A30000B46014600202022012409E021FA02F58C
:101A40009D4205D303FA02F5491B04FA02F5284426
:101A5000151EA2F10102F1DC30BD2DE9F05F054653
:101A6000002092469B4688460646814640241BE05D
:101A7000284641464746224600F031FA53465A4628
:101A8000C01A914110D311461846224600F018FAA8
:101A90002D1A67EB01084F4622460120002100F075
:101AA0000FFA17EB00094E41201EA4F10104DFDC00
:101AB000484631462A464346BDE8F09F0029A8BF64
:101AC0007047401C490008BF20F00100704710B467
:101AD000B0FA80FC00FA0CF050EA010404BF10BC1C
:101AE000704749B1CCF1200421FA04F411FA0CF149
:101AF00018BF012121430843A3EB0C01CB1D4FEA82
:101B000000614FEA102042BF002010BC704700EB7C
:101B1000C35010440029A4BF10BC7047401C4900AA
:101B200008BF20F0010010BC70472DE9FE4F804631
:101B300081EA0300C00F0C46009021F0004123F021
:101B40000045B8EB0200A94105D240462146904627
:101B50001C460B46024623F00040104347D0270D99
:101B6000C7F30A00C3F30A510290401A01904028BB
:101B70006BDAC3F3130040F4801B0098924620B147
:101B80000023D2EB030A63EB0B0B01985946C0F11B
:101B90004002504600F094F906460D46504659461C
:101BA000019A00F0ACF910EB08006141002487EACB
:101BB000115284EAE7731A4340D0009A62B3019A43
:101BC000012A4FEA075215DC001B61EB02014FF0BE
:101BD000004202EA0752CDE90042001C41F58011A3
:101BE00032462B4600F0ACF903B0BDE8F08F40461A
:101BF0002146F9E7001B61EB0201001C41F580134F
:101C000000185B412018A2F5001747EB030140EADA
:101C1000D570B6196D4111E06D084FEA360645EAF8
:101C2000C0754FEA0752001B61EB0201001C41F531
:101C3000801149084FEA30000019514132462B46C5
:101C400003B0BDE8F04F00F06CB9009801224000ED
:101C50000023D0EB020263EBE073009821464FEAC9
:101C6000E074B8EB000061EB0401E9E783F00043A6
:101C70005BE781F0004158E72DE9FE4F81EA03045C
:101C800004F0004421F0004100944FF0000B23F0D9
:101C9000004350EA01045ED052EA03045BD0C3F370
:101CA0000A54C1F30A552C44A4F2F3340194A0FB66
:101CB0000254C1F3130141F48011C3F3130343F43D
:101CC000801301FB024400FB034E840A970A44EA96
:101CD000815447EA8357A4FB076802958D0A05FBE8
:101CE00007854FEA932C04FB0C542705029D4FEA0D
:101CF000065847EA1637B5EB08056EEB070C870E5A
:101D0000920E47EA811742EA8312A7FB0201B6EB63
:101D10000B0164EB00042B0D43EA0C335E1844EB1B
:101D20001C50DA465146E7FB0201C5F313044FEAA3
:101D30000B3343EA14534FEA0432019C43EA06038F
:101D4000A4F10C040294009CCDE900B400F0F8F872
:101D500003B0BDE8F08F00200146F9E72DE9F04D12
:101D600081EA030404F0004B21F0004514464FF0D3
:101D7000000A23F0004150EA050220D054EA010293
:101D80001DD0C5F30A570246C5F31303C1F3130070
:101D9000C1F30A5640F4801543F48013A7EB0608FC
:101DA000101BD64608F2FD3873EB050002D308F18C
:101DB000010801E092185B41B8F1000F03DA00203E
:101DC0000146BDE8F08D00204FF4801106468446A0
:101DD0000EE0171B73EB050705D3121B63EB05031E
:101DE00006434CEA010C49084FEA300092185B4167
:101DF00050EA0107EDD152EA030012D082EA040052
:101E000083EA0501084305D0101BAB4106D201222D
:101E1000002306E000224FF0004302E06FF00102D1
:101E200053101AEB06004CEB085110EB0A0041EB83
:101E30000B01BDE8F04D00F074B8C1F30A52C1F3D4
:101E4000130140F2FF3341F480119A4202DA00207C
:101E50000146704740F233439A42A2F2334202DC19
:101E6000524200F03CB800F02BB8000030B5041E20
:101E700071F1000404DB4FF00044404264EB0101C7
:101E8000141E73F1000405DB1C464FF00043524260
:101E900063EB0403994208BF904230BD064C074DE6
:101EA00006E0E06840F0010394E80700984710342A
:101EB000AC42F6D3FEF7DEF9045F0608245F06089D
:101EC000202A04DB203A00FA02F1002070479140FA
:101ED000C2F1200320FA03F3194390407047202AEF
:101EE00004DB203A21FA02F00021704721FA02F3C4
:101EF000D040C2F120029140084319467047202A81
:101F000006DBCB17203A41FA02F043EAE07306E021
:101F100041FA02F3D040C2F1200291400843194631
:101F2000704710B5141E73F1000408DA401C41F12B
:101F3000000192185B411A4301D120F0010010BD4D
:101F40002DE9F04D92469B4611B1B1FA81F202E0C3
:101F5000B0FA80F220329046FFF7B2FF04460F46F7
:101F600040EA0A0041EA0B0153465A46084313D09F
:101F7000114653EA010019D0C8F140025046FFF75C
:101F8000AEFF05460E46504659464246FFF798FFBB
:101F9000084305D0012004E020463946BDE8F08D15
:101FA0000020054346EAE0762C4337430A98630550
:101FB000E40AA0EB08000022FD0A44EA47540A3074
:101FC00002D500200146E9E7010510196941DDE964
:101FD000084500196941BDE8F04DA2E770B58C18BD
:101FE00010F8015B15F0070301D110F8013B2A112D
:101FF00006D110F8012B03E010F8016B01F8016B1A
:102000005B1EF9D12B0705D40023521E0DD401F815
:10201000013BFAE710F8013BCB1A921C03E013F8DE
:10202000015B01F8015B521EF9D5A142D8D3002013
:1020300070BD426822F4007222F4400211434160F4
:102040007047426822F01F021143416070474162AD
:10205000826270470029816814BF41F0010121F0BC
:1020600001018160704700000849D1F80423084B42
:102070001A40D0E9003C43EA0C03D0E902C04CEA24
:10208000000018431043C1F80403704700200140CA
:10209000E030FCFF0029816814BF41F4807121F415
:1020A0008071816070470029816814BF41F400711C
:1020B00021F400718160704710B500210A4814F0C6
:1020C000C9FD0021094801F059FA0021084801F032
:1020D00055FA00210748FFF7BDFFBDE81040002179
:1020E0000548FFF7B7BF0000000001402864024028
:1020F0001064024000200140002201402DE9F04F11
:10210000DFF820B193B0584601F042FA4FF08060FA
:1021100000900024444801904448CDE902044FF463
:1021200080677D00CDE906754FF42056CDE9046443
:102130004FF0030ACDE90CA44FF480784FF4003936
:102140000E94CDE90A94CDE908586946584601F045
:102150000BFB0121584601F011FADFF8D4B05846C4
:1021600001F016FA33486946CDE900403248CDE91E
:102170000204CDE90675CDE90464CDE90CA40E9402
:10218000CDE90A94CDE90858584601F0EDFA01214D
:10219000584601F0F3F9294D002301220A2128466F
:1021A00000F020F901212846FFF754FF244D0023B9
:1021B00001220D21284600F015F901212846FFF7DC
:1021C00049FF14F0D1FB1F480088002804BF13B05A
:1021D000BDE8F08F1C481D4D8480284614F04EFD4C
:1021E0001C481B4990F9002051F83200401E109005
:1021F00001EBC2000FA98088ADF84440401EADF845
:102200003C00ADF83E40284614F040FF0122114644
:10221000284614F018FE0021284614F01BFD13B0C8
:10222000BDE8F08F286402404C220140865F002008
:10223000106402404C200140860F00200022014023
:10224000002001408A0200207C00002000040140A0
:10225000A4B9020888020020C06C80B27047024610
:10226000002012680A4218BF012070472DE9F04192
:102270004FF00008164E174F4546304600F0FBF869
:1022800002213046FFF7EBFF0028F9D03046FFF778
:10229000E3FF27F81500681CC5B2282DEDD3388858
:1022A0007A8800EB080100203C46132334F804CF61
:1022B0001144628860445B1EF8D10844B7F84E10A0
:1022C00008440549A1FB0010C0F34F10BDE8F081A0
:1022D000002101408CE00020CDCCCCCC1E48006811
:1022E0001F4983B21D480380D1F8002212F0010F6C
:1022F00008BF70471B4AB3F5205F04BFB2F8FC2F3C
:1023000042800ED0A3F51C5CBCF1FF0C08BFB2F8F4
:10231000FE2F05D042F2FE72D21A134B33F8122070
:102320004280124A40881268128982420DD3D1F845
:10233000040220F04000C1F804020D4A0120108080
:102340000C48028842F001020280D1F8000200F03D
:10235000FE00C1F8000270472C6402407C0000209F
:1023600000200140869F0020865F0020940200200C
:102370008A02002000040140012303FA01F1002A2F
:10238000426814BF114322EA010141607047000016
:1023900010B4426891F804C022F4807222F04072B6
:1023A0000B6842EA0C221A43426082680C4B4C795B
:1023B0001A40D1E903C343EA0C03D1F808C04CEA40
:1023C000440C43EA0C031A438260C26A097D22F47A
:1023D0007002491EC9B242EA0151C16210BC704785
:1023E000FDF7FFC030B4072409290DD9C568A1F154
:1023F0000A0C0CEB4C0C04FA0CF425EA040403FA66
:102400000CF32343C3600AE0056901EB410C04FAB5
:102410000CF425EA040403FA0CF3234303611F239D
:10242000072A0CD2D0F834C0521E02EB820293402D
:102430002CEA030391401943416330BC70470D2AD5
:102440000CD2D0F830C0D21F02EB820293402CEAAB
:10245000030391401943016330BC7047D0F82CC08E
:102460000D3A02EB820293402CEA03039140194398
:10247000C16230BC7047816841F080418160704723
:102480000FB410B5ADF5027D85AB40F20121684671
:10249000849A20F039FE0B4C00235A1E19462069FD
:1024A00028F044FB6946084820F00AFE00231A463B
:1024B0001946206928F08EFC0DF5027D10BC5DF8F0
:1024C00014FB00000000002070A0020838B544682A
:1024D00005460146204615F0BFFA002808BF38BD62
:1024E000464A286811280DD006DC0B282AD00E2871
:1024F00038D00F2817D07CE0282873D0B0F5107F93
:102500000AD076E09268002A08BF38BD294601B09B
:102510002046BDE830401047526801B029462046A9
:10252000BDE8304010472546204608F035F80090B9
:10253000406E0468684608F0C7F8002C1CBF2846A7
:10254000A04738BD204608F027F80090683007F013
:1025500025FF009803216C3007F04EFF684608F015
:10256000B3F846E0E968486809680D2902D02029D7
:1025700018D037E0002835DD4FF48071204615F083
:1025800036FB204608F008F8009090F8285068467E
:1025900008F09AF815F0020F1ED00121204617F01E
:1025A00028F919E0002817DD25464FF480712046F0
:1025B00015F01DFB284607F0EFFF009090F828402B
:1025C000684608F081F814F0020F08BF38BD0121F9
:1025D000284617F00EF938BD2046BDE838400221E4
:1025E0001EF058BEE86820B920464FF4807115F0FF
:1025F00018FA2846BDE8384015F082BFA40500202F
:1026000030B585B04FF0000CDDE90845CDE900C5D7
:10261000CDE902C400F002F805B030BD2DE9F04765
:1026200086B00646DDE90E59884617469A46119C43
:102630000AF0ECF84C201749CDE90210CDE9005919
:1026400053463A464146304615F09EFE05001BD0E3
:1026500007F0A2FF10222146049015F095FC0E4CC5
:102660000499B4E8CD133431A1E8CD1394E80D10EA
:10267000A1E80D1054F82C0D086004A808F024F807
:1026800020684168284688470CF046FB06B028467B
:10269000BDE8F087CD240008B005002070B50446E1
:1026A00086B08069B4F908C0658A00260091CDE93A
:1026B0000165CDE903C0B4F90C00B4F91050C1189C
:1026C000B4F90A00B4F90EC010442B46624600F07B
:1026D00007F80546616800F0BDF906B0284670BDF0
:1026E0002DE9F04F85B09846DDE91164DDE90E571C
:1026F00091468A4683460AF089F804F14C0017494E
:10270000CDE90210CDE9005743464A4651465846A6
:1027100015F03AFE05001BD007F03EFF10223146AF
:10272000049015F031FC0E4C0499B4E8CD1334310B
:10273000A1E8CD1394E80D10A1E80D1054F82C0D6C
:10274000086004A807F0C0FF206841682846884751
:102750000CF0E2FA05B02846BDE8F08FCD24000861
:10276000B0050020F0B5044680688C4989B051F866
:1027700020506068002800F00A81052806D006284D
:102780007DD0122800F0B48000F004B9E869002878
:1027900008BF002651D0D5E90012AB688DE80F00C4
:1027A00004F110010FC90DF0C3F9002655F82600F9
:1027B0000BF0D5FEA169E8690A1A21690144606934
:1027C000304409F05DFAA169E8690A1A21690144F7
:1027D000E069801B09F054FAE169E8690A1A616945
:1027E00001442069304409F063FCE169E8690A1A90
:1027F00061690144A069801B09F05AFC761C022E15
:10280000D4DBA8680BF0ABFEE069E969D4F814C02A
:10281000431A206942186144801C521E09F000FDD1
:10282000E169E869A2690B1A61690144101A401C48
:10283000921E09F0F5FCEE6911E055F826000BF048
:102840008EFEE069831BA069821B60698119206983
:10285000304409F00BFB761C022EEEDB0226D5E994
:102860000301CDE90001E169606901444B10A169F0
:102870008A1B811C2069304408F046FF00E011E00B
:10288000D5E90501CDE90001E0696169831E0144D4
:102890000122A06902EB6101821B2069304408F02B
:1028A00033FF77E0206807F077FE0490206818F087
:1028B0008BF850B1A068002818BF00200AD10498F6
:1028C000006F002818BF012004E00498406F002822
:1028D00018BF0220049901EB8000C56E04A807F020
:1028E000F3FE00231A462846216808F011FB51E048
:1028F000206807F051FE0490866E002E08BF04A8E1
:1029000042D0A168B0F95C70002908BF012103D052
:1029100003290CBF0221002100EB8101406D0C6CEA
:102920000BF046FE20460BF01AFE06A809F0BAFD91
:10293000BDF81810A88B0144ADF81810BDF81C1094
:10294000081AADF81C00BDF81A00801CADF81A007A
:10295000BDF81E00801EADF81E000498B0F960207E
:10296000B0F95E1006A80BF0E1F904A807F0ACFE80
:1029700002200BF09BFE304607F00EFE3A4606A9F9
:10298000059008F001FC05A807F09EFE02E0206813
:1029900017F0FAF909B00020F0BD0000101A050880
:1029A000F0B583B016460D46040004BF03B0F0BD79
:1029B00009F02CFF204607F0EFFD0190806E002704
:1029C000002808BF2F7011D007F0E6FD0090FEF739
:1029D000EFFF0446701E84420FDC22462846009911
:1029E000FEF7B4FF684607F06FFE2F5501A807F009
:1029F0006BFE0CF091F903B0F0BD0446EDE738B57D
:102A000005004FF000040DD009F000FF284607F044
:102A1000C3FD0090408EC0F30024684607F054FECA
:102A20000CF07AF9204638BD002808BF704738B549
:102A30000C46054609F0EAFE284607F0ADFD009079
:102A40004465684607F040FE284616F017FE0CF075
:102A500063F938BDF0B583B00F4605004FF00104AF
:102A600021D009F0D3FE284607F096FD0190866E2E
:102A700001A8009607F028FE394668460DF098FF39
:102A800078B100980024B04208D0284607F084FDB1
:102A900001900099816601A807F016FE284616F0FD
:102AA000EDFD0CF039F903B02046F0BDFEE72DE94D
:102AB000F84F446805460146204614F0CDFF002833
:102AC00008BFBDE8F88F28680B2873D00E2805D002
:102AD0000F2823D0B0F5107F30D075E0204607F0E6
:102AE0005BFD009090F8746090F87570684607F090
:102AF000EBFD204617F068FF002865D0E8684168C4
:102B0000002961DD006820285ED1781CB0FBF6F159
:102B100006FB1101204600F016FB55E02546204635
:102B200007F03AFD0090006F0468684607F0CCFD9E
:102B3000002C1CBF2846A047BDE8F88F264600277A
:102B4000204607F029FD009090F8749090F8758069
:102B5000B0F930A0684607F0B7FDEC6824B3304602
:102B600016F05CFC20B13946304616F042FE2BE0F0
:102B7000207A88B10121304616F0FCFF08F10100EF
:102B8000B0FBF9F109FB1101304600F0DCFA01213C
:102B9000304616F02EFE17E00221304616F029FED0
:102BA00050460BF09BFD0FE00321304616F021FE4E
:102BB0000AE0FFE7204607F0EFFC0090783007F0CE
:102BC000EDFB684607F080FD2846BDE8F84F15F09C
:102BD00097BC70B586B0B0F90840458AD0F818C0E7
:102BE0000026CDE90254CDE90016CDF810C0B0F9A9
:102BF0000C10B0F91040B0F90EC0B0F90A00194439
:102C000010442346624600F003F806B070BD000091
:102C10002DE9FF4F85B01D46DDE912A7DDE91589D5
:102C200016468B4609F0F2FD264C0EB135B10AE08E
:102C30002068806800688047064625B9206880685B
:102C400000688047054620486FF07041C0688842A0
:102C500008BF47F0010709F154011C48CDE900A75E
:102C6000CDE902012B4632465946059815F08CFBFA
:102C7000050021D007F090FC10224146049015F089
:102C800083F9241D0499B4E8CD133431A1E8CD13A0
:102C900094E8CD11A1E8CD1154F8240D41F8700944
:102CA000022081F874000F20C86704A807F00CFD0B
:102CB00020684168284688470CF02EF809B028465D
:102CC000BDE8F08F580800205C080020AF2A0008FB
:102CD0002DE9F04F0446006899B028B117F074FE52
:102CE000002808BF012500D00025FD4850F82560C8
:102CF00060680A2800F0708108DC002800F0DB81A1
:102D000006283ED007280CD000F0E6B9122800F0C3
:102D10002D81192802BFB06919B0BDE8F08F00F00D
:102D2000DBB9256809F072FD284607F035FC0090F4
:102D3000C76F684607F0C8FC0BF0EEFF5FF00005B8
:102D400056F825000BF00BFC2069C119491B4B1EDE
:102D500061691A462944284409F088F86D1C032D3E
:102D6000EED3D6E90301CDE900012069C119491B61
:102D70004B1E61691A462944284408F0C5FC00F03E
:102D8000ABB9A068401E1590246809F03FFD2046AD
:102D900007F002FC0090C46F684607F095FC0BF04A
:102DA000BBFFDFF8409359F82570002F1CBF159822
:102DB00000EB80010DD000BFB7F84800A04205D15C
:102DC00007EB8100806808B11FB1C5E0FF6C002FE0
:102DD000F2D1502007F04EFB070000F07D81502219
:102DE00000210DF073FE70697864A7F8484059F827
:102DF0002500F864A4F10608BB4849F8257080FB5B
:102E000008104110A1EBE0710320109001201290F6
:102E100007F14000159D119005EB850007EB800040
:102E2000029005EB450007EB800028300D9008EB81
:102E3000D8704210401000EBD073A0EB630046182E
:102E4000501A0A9008F10700C11700EB51704FEAC1
:102E5000E00A0AFB08F4CDF82480204607F00AFBBC
:102E60005FEA000978D0224600210DF02FFE0A9873
:102E7000129A012826DD109B0121304633448342FB
:102E80001BDD4FEAE27C02EB5C7E02F0070C802443
:102E900024FA0CFC404509DA0AFB00F404EBEE04CA
:102EA00019F804B04BEA0C0B09F804B06940401C57
:102EB000834202DD0029F9D0ECE70A98521C761C07
:102EC0009042D8DC12990998401A0A90904226DD67
:102ED0001099012034463144A1421BDDD31702EB87
:102EE000537E02F007034FF0800C2CFA03F34445A5
:102EF00009DA0AFB04FC0CEBEE0C19F80CB04BEAF7
:102F0000030B09F80CB06840641CA14202DD0028E4
:102F1000F9D0ECE70A98521C761E9042D8DC0D9846
:102F2000022101600D99012008710D9A119991609B
:102F30000299C88002980021A0F804A00298C0F865
:102F400008900298016102990D98C8600299099849
:102F500008800298A0F802801598032200EB8000F8
:102F600007EB8000114608F0DBF9B5E0206807F0B8
:102F700013FB0290B0F9546090F85670D0F844906A
:102F8000D0F8348002A807F09FFB256809F03EFCCA
:102F9000284607F001FB0390B0F87C5003A807F027
:102FA00093FB0BF0B9FE684615F0C2FDBDF80000BA
:102FB000E9190844ADF80000246A40460BF0F8FA1D
:102FC00002200BF073FB48460BF0C9FA3246694603
:102FD000204608F0D9F87FE0206807F0DDFA049079
:102FE000B0F9546090F85690D0F83480876C04A8FB
:102FF00007F06AFB256809F009FC284607F0CCFABF
:103000000390B0F87C5003A807F05EFB0BF084FE41
:10301000684615F08DFDBDF8000005EB0901084478
:10302000ADF80000206A09F0DBFA0446404609F0DA
:1030300001FB26F00301042904BFBDF80610091A9C
:1030400008D00C2908D1BDF90610091A491C01EB5A
:10305000D1714910ADF8021026F00C0101290CD0F5
:10306000022913D1BDF90410BDF90020891A091BEA
:1030700001EBD17102EB610106E0BDF80420BDF85F
:103080000010521A121B1144ADF80010BDF80010C8
:10309000621E1144ADF80410BDF80210401E084431
:1030A000ADF8060038460BF05AFA4FF0FF3168468B
:1030B00008F0DCF910E0206816F066FE206807F0E2
:1030C0006BFA0590B0F90610B0F90220891A491C74
:1030D000C16705A807F0F8FA19B00020BDE8F08F25
:1030E00090570608EC0900206766666638B505004B
:1030F0004FF000040CD009F089FB284607F04CFA89
:10310000009090F87540684607F0DEFA0BF004FE78
:10311000204638BD002808BF704738B50C46054624
:1031200009F074FB284607F037FA0090416BA14282
:1031300003D04463284616F0A1FA684607F0C4FAA3
:103140000BF0EAFD38BD002808BF704738B50C46C3
:10315000054609F05BFB284607F01EFA009090F840
:103160007410A1420CD980F87540684607F0ACFA9B
:10317000284616F083FA0521284616F03AFB02E0AD
:10318000684607F0A1FA0BF0C7FD38BD002814BF50
:103190000029704770B582B00D46044609F036FB31
:1031A000204607F0F9F90190866F01A8009607F014
:1031B0008BFA294668460DF0FBFB70B10098B042CF
:1031C00008D0204607F0E8F901900099816701A82E
:1031D00007F07AFA204616F051FA0BF09DFD02B086
:1031E00070BD002808BF704738B50C46054609F089
:1031F0000DFB284607F0D0F90090416CA14203D0A6
:103200004464284616F03AFA684607F05DFA0BF077
:1032100083FD38BD00B589B0002000900290039076
:10322000049005900690079008901920019004489A
:103230000068806841686846884709B000BD0000A2
:103240005808002070B5234C054682B02068418C98
:10325000B0F84C2011444184818CB0F850201144C6
:103260008184284609F0F8F82168498CADF80010EF
:10327000461828460DF0D2F93044401EADF804003F
:1032800009F062F92168898CADF802100844401EEB
:10329000ADF80600684617F0CDF930B1284604F0C5
:1032A00039FA16F0E3FF0028F8D10A2D04D0BDF852
:1032B00004002168401C48842068418CB0F84C20F0
:1032C000891A4184818CB0F85020891A818402B017
:1032D00070BD0000EC04002070B54649054600248E
:1032E000086810F0450F03D1086810F0450FFBD0B7
:1032F00010F0040F05D00324042011F049FB2046F0
:1033000070BD10F0010F05D00124204611F040FBE4
:10331000204670BD11F078FBA84234D140F2FF5036
:1033200011F036FB002011F091FB334908425ED0CA
:1033300010F0004F1CBF1C2070BD10F0804F1CBF50
:10334000092070BD10F0005F1CBF0A2070BD10F096
:10335000805F1CBF0B2070BD10F0006F1CBF0C20E5
:1033600070BD10F0806F1CBF0D2070BD10F0807F0D
:103370001CBF0E2070BD10F4000F1CBF0F2070BDCD
:1033800010F4800F01D0102070BD10F4001F1CBF7E
:10339000112070BD10F4801F1CBF122070BD10F4EE
:1033A000002F1CBF132070BD10F4802F1CBF1420F1
:1033B00070BD10F4003F1CBF152070BD10F4803F9D
:1033C0001CBF162070BD10F4004F1CBF172070BD2D
:1033D00010F4804F1CBF182070BD10F4005F1CBF9C
:1033E000192070BD10F0080F1CBF1A2070BD2046B8
:1033F00070BD0000342C014008E0FFFD00B583B033
:103400000020009003460190034A0521034807F07D
:10341000EBFB03B000BD0000293E0208BCE002083F
:1034200000B583B00020009003460190034A0521B7
:10343000034807F0D9FB03B000BD0000E9430208D0
:1034400020E4020800B583B00020009003460190FC
:10345000034A1121034807F0C7FB03B000BD000079
:10346000ED44020848E1020800B583B00020009056
:1034700003460190034A0921034807F0B5FB03B056
:1034800000BD0000B947020824E3020800B583B07C
:103490000020009003460190034A0621034807F0EC
:1034A000A3FB03B000BD000035490208ACE40208EC
:1034B000054A012303FA00F00029116814BF0843EC
:1034C00021EA00001060704700740040054A931420
:1034D00003FA00F00029116814BF084321EA000034
:1034E00010607047007400400B4B10B41A6840F62F
:1034F000FE7C0CFA00FC22EA0C02D1E900C44CEA82
:10350000040CD1E9024121434CEA010101FA00F027
:103510001043186010BC704700740040014902203D
:103520008860704700B002400648006810F0C05F35
:1035300008BF70470120044948614FF0C251034859
:1035400000F006B800640240840000205864024085
:10355000064A904234BF0648064811F0005F064A0A
:1035600001EA020114BFC16081607047106402402B
:1035700000600240006402407D0F7D0F0029016859
:1035800014BF41F0010121F001010160704700000A
:103590002DE9F003016821F00101016000210160C3
:1035A00041608160C160016121214161434A3D2444
:1035B0004349904202BF8C60BDE8F0037047414A26
:1035C0004FF47465904202BF8D60BDE8F003704710
:1035D0003D4A4FF47418904202BFC1F80880BDE81C
:1035E000F0037047394A4FF07466904202BF8E6014
:1035F000BDE8F0037047364B364A984202BFCA60B6
:10360000BDE8F0037047DFF8D0C0344B604502BF1F
:10361000CB60BDE8F0037047314FDFF8C8C0B84257
:1036200002BFC1F80CC0BDE8F0037047DFF8B890E6
:103630004FF03D57484502BFCF60BDE8F0037047EB
:10364000DFF8A8902A49484502BF0C60BDE8F003A6
:103650007047284CA04202BF0D60BDE8F0037047E0
:10366000254CA04202BFC1F80080BDE8F0037047BE
:10367000224CA04202BF0E60BDE8F0037047204C10
:103680002049A04202BF0A60BDE8F00370471E4A0D
:10369000904202BF0B60BDE8F00370471B4A9042A6
:1036A00002BFC1F800C0BDE8F0037047184A90425D
:1036B00008BF0F60BDE8F0037047000010600240D3
:1036C00000600240286002404060024058600240B2
:1036D000706002403D00002088600240400F0020E2
:1036E000A060024000003D20B8600240106402402B
:1036F000086402402864024040640240586402406A
:10370000706402400C64024088640240A06402407D
:10371000B86402400029016814BF41F0200121F083
:1037200020010160704711F0800F01F01E0306D0E8
:1037300072B1D0F814C04CF0800CC0F814C08029CD
:1037400008BF7047002A1CBF0168194307D008E072
:10375000426922F080024261802908BF70470168F7
:10376000994301607047000010B402681B4BD1F808
:103770000CC01A400B6843EA0C03D1E905C44CEABB
:10378000040C43EA0C03D1F81CC043EA0C03D1F843
:1037900020C043EA0C03D1F824C043EA0C03D1F85B
:1037A00028C043EA0C03D1F834C043EA0C03D1F833
:1037B00038C043EA0C031A4302604269D1E90B3C6A
:1037C00022F0070243EA0C031A4342610A6942608D
:1037D0004A6882608968C16010BC70473F801CF0F5
:1037E0002DE9F04100262DED028B9FED8D8A8D4C49
:1037F000206880ED048A9FED8C0A8C4980ED030AD5
:1038000080ED000A098800297DD1894D95F90010C5
:103810000A2978DAB0F8D824864F00EE102A40F250
:10382000FF3C3968B8EE400A81ED000AB0F8DA24AE
:1038300000F59B6000EE102A30F8043FB8EE400A15
:1038400081ED010A00EE103A4288B8EE400A81ED9F
:10385000020A0831BCF1010CECD1216840F2FF7082
:1038600001F6FE71DFF8D481B1F8D81400EE101A19
:103870003968B8EE400A01EB800080ED000A6E481E
:10388000D8F8002003786E48FDF735F94FF48062D0
:103890003968D8F80000FCF761FD3868002140F273
:1038A000FE3290ED010A0830BCEEC00AD0ED000AED
:1038B000B8EE401AF4EEC10AF1EE10FAC4BFBCEE45
:1038C000E00A8E1C001D491C521E1204120CEDD180
:1038D0005C4995F9000051F830107143CA0A21681B
:1038E0000128CA6105D141F2FC40405C58B101F0A9
:1038F00041FB2878042809D1206800F5805090F811
:10390000FD0400B100E00DE001F0F6FB2878072887
:1039100008D1206800F5805090F8FE04002818BFF8
:1039200001F0B2FCDFF820C100214FF41675DCF87D
:103930000020206800EB4103D0ED000A1E8D00EE50
:10394000106AB8EE400A30EE800A80ED000A188D49
:1039500000EE100AB8EE400AA2EC010A206800EB63
:103960004106338D00EE103AF8EE400A90ED040A5D
:10397000F4EEC00AF1EE10FADCBF00EE103AB8EE39
:10398000400A80ED040A338D00EE103AF8EE400A4A
:1039900090ED030AF4EEC00AF1EE10FAC4BF00EE97
:1039A000103AB8EE400A80ED030A491C6D1EC0D1E2
:1039B00020684FF4167100F11402DCF80000FDF7E6
:1039C0004FF920689FED210ADFED211AD0ED050A9D
:1039D00060EE800A80EE881A80ED051A90ED001ADC
:1039E000C1EE210A60EE800A80EE881A80ED001A8E
:1039F000D0ED030A20EE801AC1EE080AC0ED030ADA
:103A000090ED041A21EE001A81EE080A80ED040AF6
:103A100030EEC00A80ED010ABDEC028BBDE8F081FA
:103A200000F07F459C020020000000008A02002078
:103A300088020020A40200201C000020E8020020D0
:103A4000680A0020A0DF0208F4030020333353404B
:103A5000000016442DE9F041A74E0022A74C318802
:103A60000125E9B1A64802290068C57018BFBDE864
:103A7000F081C27041F2F84120684FF49662095E0D
:103A800000EB4101283001F52861FDF75FFF35802B
:103A9000BDE8F04101224FF483719A48FEF76CBCF7
:103AA0009949964B91F9002098491B680A2A7DDABA
:103AB000B0F5006F47D200F5005292B2B2F5205F28
:103AC0002AD201EB4201C2F52055891E4FF0000CAD
:103AD00015F0010F05D031F802CFA3F8D8C44FF08C
:103AE000010CC5F34F05BDB102EB0C06B61A1FFA67
:103AF00086F8761C03EB48084F88B6B2A8F8D8744D
:103B000003EB46066D1E31F8047F2D04A6F8D87429
:103B10000CF1020C2D0CE7D1C0F500611FFA81FCFD
:103B200000281CBF794A002118D000BF0CEB010609
:103B300003EB460632F8025BA6F8D854401E01F1AA
:103B40000101F3D10AE0A0F5006080B201EB400171
:103B50004FF4805203F59B60FDF7F8FE6C4900209E
:103B6000236809680246B1F808C003EB4201401C13
:103B7000B1F8D84480B2A4453CBFB1F8DA1461452D
:103B800004D3511C8AB2B2F5B56FEED303F5805160
:103B900000B2A1F8F604B1F9F824D04244BF424281
:103BA000A1F8F824B1F9F824024400E015E0B2F5D8
:103BB000B56FC4BFC0F5B562A1F8F824B1F9F81427
:103BC000BDE8F041084403EB400000F59B614FF471
:103BD000966203F12800FDF7B9BE03F5805C9CF8FE
:103BE000FF24EAB3B0F5167F5AD242F2A85202443B
:103BF00092B2B2F5205F2BD201EB4201C2F5205503
:103C0000891E4FF0000C15F0010F05D031F802CFDE
:103C1000A3F8D8C44FF0010CC5F34F05C5B100BFE0
:103C200002EB0C06B61A1FFA86F8761C03EB48085E
:103C30004F88B6B2A8F8D87403EB46066D1E31F86B
:103C4000047F2D04A6F8D8740CF1020C2D0CE7D1DA
:103C5000C0F516711FFA81FC002818BF2B4A00E03E
:103C60000FE018BF002126D00CEB010603EB46063F
:103C700032F8025BA6F8D854401E01F10101F3D1DD
:103C800019E058621A6A9042A0EB020238BF02F5AE
:103C900020525A62B2F5167F28BF8CF8FF54A1E774
:103CA000A0F5167080B201EB40014FF4966203F567
:103CB0009B60FDF74BFE00202168024640F257232F
:103CC000A3EB000C01EB4C0C01EB4004BCF8D8C496
:103CD000A4F828C0401CA3EB000C01EB4C0C01EB3A
:103CE0004004BCF8D8C4401C921CA4F828C0B2F50B
:103CF000167FE5DBBDE8F0818A0200209C020020EF
:103D0000900200200022014088020020865F0020EF
:103D10009402002070B52DED028B9FED448A44483B
:103D2000006880ED048A9FED430A434D80ED030A4D
:103D300080ED000A414C2A6800214FF4167C20686F
:103D400000EB4103D0ED000A1E8D00EE106AB8EEC4
:103D5000400A30EE800A80ED000A188D00EE100A4D
:103D6000B8EE400AA2EC010A206800EB4106338D50
:103D700000EE103AF8EE400A90ED040AF4EEC00AA4
:103D8000F1EE10FADCBF00EE103AB8EE400A80ED1A
:103D9000040A338D00EE103AF8EE400A90ED030A63
:103DA000F4EEC00AF1EE10FAC4BF00EE103AB8EE1D
:103DB000400A80ED030A491CBCF1010CBFD1206808
:103DC0004FF4167100F114022868FCF749FF2068CF
:103DD0009FED1B0ADFED1B1AD0ED050A60EE800A8D
:103DE00080EE881A80ED051A90ED001AC1EE210AC6
:103DF00060EE800A80EE881A80ED001AD0ED030A8A
:103E000020EE801AC1EE080AC0ED030A90ED041AF4
:103E100021EE001A81EE080A80ED040A30EEC00A95
:103E200080ED010ABDEC028B70BD000000F07F4503
:103E30009C02002000000000F4030020A0020020EB
:103E400033335340000016442DE9F0419048008878
:103E5000002818BFBDE8F0818E480068904CC0F57E
:103E6000205081B28C488D4A90F9003020680A2B8E
:103E70007CDAB1F5006F48D201F500539BB2B3F57F
:103E8000205F2BD202EB4302C3F52055921E4FF068
:103E9000000C15F0010F05D032F802CFA0F8D8C4FD
:103EA0004FF0010CC5F34F05C5B100BF03EB0C0685
:103EB000F61A1FFA86F8761C00EB48085788B6B247
:103EC000A8F8D87400EB46066D1E32F8047F2D0466
:103ED000A6F8D8740CF1020C2D0CE7D1C1F50062E4
:103EE0001FFA82FC00291CBF6C4B002218D000BFB7
:103EF0000CEB020600EB460633F8025BA6F8D8543A
:103F0000491E02F10102F3D10AE0A1F5006189B274
:103F100002EB41014FF4805200F59B60FDF716FD66
:103F2000604800221146006803892068521C00EB9B
:103F3000410C92B2BCF8D844A3423CBFBCF8DAC4EE
:103F40009C4504D3491C89B2B1F5B56FEED311B2CB
:103F500041F2F6421152BDE8F04100EB41014FF44D
:103F60009662283001F59B61FDF7F0BC00F5805C9E
:103F70009CF8FF34F3B300BFB1F5167F5BD242F279
:103F8000A8530B449BB2B3F5205F2BD202EB430244
:103F9000C3F52055921E4FF0000C15F0010F05D00F
:103FA00032F802CFA0F8D8C44FF0010CC5F34F058A
:103FB000C5B100BF03EB0C06F61A1FFA86F8761C93
:103FC00000EB48085788B6B2A8F8D87400EB46064C
:103FD0006D1E32F8047F2D04A6F8D8740CF1020C83
:103FE0002D0CE7D1C1F516721FFA82FC002918BF0B
:103FF0002A4B00E00FE018BF002227D00CEB02068E
:1040000000EB460633F8025BA6F8D854491E02F1CD
:104010000102F3D11AE04162036A9942A1EB030362
:1040200038BF03F520534362B3F5167F24BF012345
:104030008CF8FF34A0E7A1F5167189B202EB4101BB
:104040004FF4966200F59B60FDF780FC0020D4F8E9
:104050000010024640F25723A3EB000C01EB4C0C7E
:1040600001EB4004BCF8D8C4A4F828C0401CA3EB62
:10407000000C01EB4C0C01EB4004BCF8D8C4401C14
:10408000921CA4F828C0B2F5167FE5DBBDE8F081EC
:104090008A0200201464024088020020860F00205B
:1040A000A002002094020020F0B583B00121672017
:1040B0000FF0BAFE01208DF8040000218DF80610E3
:1040C0008DF807108DF80500802469461748009484
:1040D00004F04CF9164E402569463046009504F030
:1040E00045F9144F69463846009504F03FF9694692
:1040F0003846009404F03AF9E000009069460E4812
:1041000004F034F9202000906946304604F02EF97E
:104110000A48048075830021012002F0A9F80021DB
:10412000022002F0A5F803B0F0BD00000004024038
:104130000000024000080240001802401A04024039
:1041400000B583B014F03AFD0021009103460191BF
:10415000034A0821034806F047FD03B000BD0000F4
:10416000593B02080CE9020800B583B014F026FDA3
:104170000021009103460191034A0E21034806F0F5
:1041800033FD03B000BD0000293F0208ECE902083E
:1041900000B583B014F012FD002100910346019197
:1041A000034A0A21034806F01FFD03B000BD0000CA
:1041B000054B020874EB020800B583B014F0FEFC56
:1041C0000021009103460191034A2221034806F091
:1041D0000BFD03B000BD00007D4F020854E502084E
:1041E00000B583B014F0EAFC002100910346019170
:1041F000034A0921034806F0F7FC03B000BD0000A4
:104200001D5102088CEC02082DE9F047054698463E
:1042100091460C4600200AF08BF943464A46214657
:10422000284606F0A1FC6FF07F400AF098F90027BD
:1042300007EBC70000EB0710002604EB400A06EB73
:104240008600514605EB400007F09CFD701C86B2CD
:104250003D2EF4D3781C87B2092FE9D35FF0000616
:1042600006EB860005EB4000414607F08BFD701C15
:1042700086B23D2EF4D3002707EBC70000EB0710F2
:10428000002605EB400A00BF06EB860004EB400168
:10429000504607F077FD701C86B2292EF4D3781CA7
:1042A00087B20C2FE8D3002606EB860004EB400112
:1042B000484607F03FFD701C86B2292EF4D3A8F1C2
:1042C0000101A9F1010007F035FD002606EB86008B
:1042D00004EB40010F4605F22B1007F02BFD394689
:1042E00005F22D1007F026FD701C86B2292EEDD3A5
:1042F000414605F22B1007F01DFD414605F22D1039
:1043000007F018FD5FF0000606EB860005EB4000A5
:10431000074604F1C70107F00DFD384604F1C90155
:1043200007F008FD701C86B23D2EEDD304F1C701E5
:10433000484607F0FFFC04F1C9014846BDE8F047D4
:1043400007F0F8BC70B52DED028B90B044F2F00090
:104350000AF005F9FE4C40F27F2228212068B0F9CE
:10436000060007F08DFC206840F27F222821B0F97A
:104370000600401C07F084FC0325009520683D22C0
:10438000B0F9060000F11203C11C322007F07EFFD5
:10439000206840F27F222821B0F9080007F070FC65
:1043A000206840F27F222821B0F90800401E07F063
:1043B00067FC009520683D22B0F90800C31EA0F1FB
:1043C0001201322007F062FF00200AF0C8F8E1482D
:1043D0000AF0EEF802200AF069F920683321B0F9FA
:1043E0000620612006F0E2FD2068332100891338A1
:1043F00002B2622006F0DAFD00200AF0B0F80426CE
:10440000872340F27B2237214FF4FA70009607F0A1
:104410003DFF6FF07F400AF0A2F888234FF41F722F
:10442000362140F2F310009607F072FD44F2F000DE
:104430000AF095F84D2340F207223E214FF4FE701A
:10444000009507F023FF692340F207225A214FF419
:10445000FE70009507F01AFF00200AF080F8BE48B1
:104460000AF0A6F802200AF021F93B2240F2FD11E1
:10447000612006F09BFD582240F2FD11622006F0FB
:1044800095FD4FF6FF700AF06AF8B4480AF090F80C
:10449000732240F2FF11232006F088FD2068B14D01
:1044A000AF4EB0F90210A1F5AA7295F9001036F8D6
:1044B00021305A4300EE102AF8EEC00A9FEDAA8A76
:1044C00080EE880A80ED030A06EB8100408801280F
:1044D0000CD0022817D0032822D004282DD005287C
:1044E00038D0062843D007284ED059E010EE100AE5
:1044F000FDF76EFA41EC100B9CA153EC102B01A8B8
:104500001EF0EEFD4CE010EE100AFDF761FA41ECF2
:10451000100B98A153EC102B01A81EF0E1FD3FE019
:1045200010EE100AFDF754FA41EC100B93A153EC76
:10453000102B01A81EF0D4FD32E010EE100AFDF79A
:1045400047FA41EC100B8FA153EC102B01A81EF081
:10455000C7FD25E010EE100AFDF73AFA41EC100B0A
:104560008AA153EC102B01A81EF0BAFD18E010EE42
:10457000100AFDF72DFA41EC100B86A153EC102B1D
:1045800001A81EF0ADFD0BE010EE100AFDF720FAB9
:1045900041EC100B81A153EC102B01A81EF0A0FDE3
:1045A0003F2240F20B2101A806F0C0FD2068B0F9BF
:1045B0000410A1F5AA7295F9001036F821305A437B
:1045C00000EE102AF8EEC00A80EE880A80ED040A98
:1045D00006EB8100408801280CD0022817D0032860
:1045E00022D004282DD0052838D0062843D007280B
:1045F0004ED059E010EE100AFDF7EAF941EC100B2D
:104600005AA153EC102B01A81EF06AFD4CE010EEED
:10461000100AFDF7DDF941EC100B56A153EC102BFD
:1046200001A81EF05DFD3FE010EE100AFDF7D0F985
:1046300041EC100B51A153EC102B01A81EF050FDC2
:1046400032E010EE100AFDF7C3F941EC100B4DA15A
:1046500053EC102B01A81EF043FD25E010EE100ACC
:10466000FDF7B6F941EC100B48A153EC102B01A853
:104670001EF036FD18E010EE100AFDF7A9F941EC26
:10468000100B44A153EC102B01A81EF029FD0BE0E8
:1046900010EE100AFDF79CF941EC100B3FA153EC12
:1046A000102B01A81EF01CFD5B2240F20B2101A87B
:1046B00006F03CFD95F9000006EB800040880128DB
:1046C0000CD002281ED0032830D0042871D0052831
:1046D00069D0062868D0072867D0BDE0206890ED33
:1046E000040AD0ED030A30EE600A10EE100AFDF75E
:1046F0006FF941EC100B1DA153EC102B01A81EF01B
:10470000EFFCA9E0206890ED040AD0ED030A30EE3A
:10471000600A10EE100AFDF75BF941EC100B15A1D1
:1047200053EC102B01A81EF0DBFC95E0206890ED07
:10473000040AD0ED030A30EE600A10EE100AFDF70D
:1047400047F941EC100B0DA153EC102B01A82DE003
:104750009802002040EE040870DE040804C3040838
:1047600048E002088802002000007A4425352E31F6
:104770006675730025352E33666D730025352E3230
:10478000666D730025352E31666D730025352E3329
:104790006673000025352E326673000025352E31F4
:1047A0006673000005E019E02DE041E01EF098FC82
:1047B00052E0206890ED040AD0ED030A30EE600A62
:1047C00010EE100AFDF704F941EC100B53EC102B1E
:1047D000AFF2500101A81EF083FC3DE0206890ED8F
:1047E000040AD0ED030A30EE600A10EE100AFDF75D
:1047F000EFF841EC100B53EC102BAFF2700101A855
:104800001EF06EFC28E0206890ED040AD0ED030A4B
:1048100030EE600A10EE100AFDF7DAF841EC100BEA
:1048200053EC102BAFF2940101A81EF059FC13E0D9
:10483000206890ED040AD0ED030A30EE600A10EE15
:10484000100AFDF7C5F841EC100B53EC102BAFF23A
:10485000B40101A81EF044FC732240F20B2101A810
:1048600006F064FC732240F24521232006F09EFBF3
:10487000364E2068344D96F90020B0F9061005EB4D
:104880008202C1F1F00152889FED318A514300EE5E
:10489000101AF8EEC00A80EE880A80ED030A10EEC6
:1048A000100AFDF795F841EC100B2AA153EC102BE0
:1048B00001A81EF015FC3F2240F24E2101A806F08F
:1048C00035FC206896F9002005EB8202B0F908104B
:1048D0005288C1F1F001514300EE101AF8EEC00AFF
:1048E00080EE880A80ED040A10EE100AFDF770F8D9
:1048F00041EC100B17A153EC102B01A81EF0F0FB9C
:104900005B224FF4137101A806F010FC206890EDB3
:10491000030AD0ED040A30EE600A10EE100AFDF72B
:1049200057F841EC100B0BA153EC102B01A81EF013
:10493000D7FB732240F24E2101A806F0F7FB10B01E
:10494000BDEC028B70BD000030DF02088902002040
:104950000050434725352E336656000070B52DEDC7
:10496000028B90B044F2F00009F0F9FDFE4C40F2E9
:10497000B71228212068B0F9020007F099FB2068DF
:1049800040F2B7122821B0F90200401C07F090FB5A
:104990000325009520683E232F21B0F9020000F185
:1049A0001002401D07F072FC206840F2B712282167
:1049B000B0F9040007F07CFB206840F2B712282110
:1049C000B0F90400401E07F073FB009520683E23F9
:1049D0002F21B0F90400421F103807F057FC0020C7
:1049E00009F0BDFDE14809F0E3FD022009F05EFE9B
:1049F00020682C224088801D01B2612006F0D6FA82
:104A000020682D2280880F3801B2622006F0CEFA8D
:104A1000002009F0A4FD0426872340F27B223721E1
:104A20004FF4FA70009607F031FC6FF07F4009F008
:104A300096FD88234FF41F72362140F2F310009642
:104A400007F066FA44F2F00009F089FD4D2340F2C8
:104A500007223E214FF4FE70009507F017FC6923F2
:104A600040F207225A214FF4FE70009507F00EFC29
:104A7000002009F074FDBE4809F09AFD022009F0FB
:104A800015FE3B2240F2FD11612006F08FFA5822FC
:104A900040F2FD11622006F089FA4FF6FF7009F02E
:104AA0005EFDB44809F084FD732240F20121232009
:104AB00006F07CFA2168B14DAF4EB1F90200A0F5C5
:104AC000AA7295F9000036F820305A4300EE102AF9
:104AD000F8EEC00A9FEDAA8A06EB800080EE880AF5
:104AE00081ED030A408801280CD0022817D0032842
:104AF00022D004282DD0052838D0062843D00728F6
:104B00004ED059E010EE100AFCF762FF41EC100B9A
:104B10009CA153EC102B01A81EF0E2FA4CE010EE21
:104B2000100AFCF755FF41EC100B98A153EC102B29
:104B300001A81EF0D5FA3FE010EE100AFCF748FF7E
:104B400041EC100B93A153EC102B01A81EF0C8FAF6
:104B500032E010EE100AFCF73BFF41EC100B8FA186
:104B600053EC102B01A81EF0BBFA25E010EE100A42
:104B7000FCF72EFF41EC100B8AA153EC102B01A87F
:104B80001EF0AEFA18E010EE100AFCF721FF41EC1F
:104B9000100B86A153EC102B01A81EF0A1FA0BE01C
:104BA00010EE100AFCF714FF41EC100B81A153EC3E
:104BB000102B01A81EF094FA3F2240F20B2101A80D
:104BC00006F0B4FA2068B0F90410A1F5AA7295F9BC
:104BD000001036F821305A4300EE102AF8EEC00AD1
:104BE00080EE880A80ED040A06EB810040880128E7
:104BF0000CD0022817D0032822D004282DD0052855
:104C000038D0062843D007284ED059E010EE100ABD
:104C1000FCF7DEFE41EC100B5AA153EC102B01A85F
:104C20001EF05EFA4CE010EE100AFCF7D1FE41ECEB
:104C3000100B56A153EC102B01A81EF051FA3FE0C7
:104C400010EE100AFCF7C4FE41EC100B51A153EC1E
:104C5000102B01A81EF044FA32E010EE100AFCF707
:104C6000B7FE41EC100B4DA153EC102B01A81EF028
:104C700037FA25E010EE100AFCF7AAFE41EC100B03
:104C800048A153EC102B01A81EF02AFA18E010EEF0
:104C9000100AFCF79DFE41EC100B44A153EC102BC5
:104CA00001A81EF01DFA0BE010EE100AFCF790FEB2
:104CB00041EC100B3FA153EC102B01A81EF010FA91
:104CC0005B2240F20B2101A806F030FA95F90000B2
:104CD00006EB8000408801280CD002281ED0032853
:104CE00030D0042871D0052869D0062868D007285C
:104CF00067D0BDE0206890ED040AD0ED030A30EEE5
:104D0000600A10EE100AFCF763FE41EC100B1DA1C7
:104D100053EC102B01A81EF0E3F9A9E0206890EDF8
:104D2000040AD0ED030A30EE600A10EE100AFCF718
:104D30004FFE41EC100B15A153EC102B01A81EF0F7
:104D4000CFF995E0206890ED040AD0ED030A30EE2B
:104D5000600A10EE100AFCF73BFE41EC100B0DA1AF
:104D600053EC102B01A82DE09802002040EE04081F
:104D700070DE040804C3040848E00208880200202A
:104D800000007A4425352E316675730025352E33A3
:104D9000666D730025352E32666D730025352E3114
:104DA000666D730025352E336673000025352E326F
:104DB0006673000025352E316673000005E019E0AA
:104DC0002DE041E01EF08CF952E0206890ED040ADD
:104DD000D0ED030A30EE600A10EE100AFCF7F8FD81
:104DE00041EC100B53EC102BAFF2500101A81EF058
:104DF00077F93DE0206890ED040AD0ED030A30EE2B
:104E0000600A10EE100AFCF7E3FD41EC100B53ECC6
:104E1000102BAFF2700101A81EF062F928E02068A3
:104E200090ED040AD0ED030A30EE600A10EE100A8D
:104E3000FCF7CEFD41EC100B53EC102BAFF29401BC
:104E400001A81EF04DF913E0206890ED040AD0EDA2
:104E5000030A30EE600A10EE100AFCF7B9FD41ECCF
:104E6000100B53EC102BAFF2B40101A81EF038F96F
:104E7000732240F20B2101A806F058F9732240F288
:104E80004521232006F092F8364E2068344D96F9DD
:104E90000020B0F9061005EB8202C1F1F001528842
:104EA0009FED318A514300EE101AF8EEC00A80EEF1
:104EB000880A80ED030A10EE100AFCF789FD41EC28
:104EC000100B2AA153EC102B01A81EF009F93F2268
:104ED00040F24E2101A806F029F9206896F9002039
:104EE00005EB8202B0F908105288C1F1F00151437C
:104EF00000EE101AF8EEC00A80EE880A80ED040A6F
:104F000010EE100AFCF764FD41EC100B17A153ECF6
:104F1000102B01A81EF0E4F85B224FF4137101A8D6
:104F200006F004F9206890ED030AD0ED040A30EE93
:104F3000600A10EE100AFCF74BFD41EC100B0BA1C0
:104F400053EC102B01A81EF0CBF8732240F24E2137
:104F500001A806F0EBF810B0BDEC028B70BD0000AC
:104F600030DF0208890200200050434725352E33E8
:104F70006656000030B5584C564D85B022682968F9
:104F800002F58050B0F9F634B0F9F804184402EB99
:104F900040004FF4A273B0F8D82400EE102AB8EE07
:104FA000400A81ED000AB0F8DA2400F59B6000BFEA
:104FB00000EE102A30F804CFB8EE400A81ED010A65
:104FC00000EE10CA4288B8EE400A81ED020A0831AC
:104FD0005B1EEDD1216801F58050B0F9F624B0F9DF
:104FE000F8341A4402F2892201EB4201B1F8D814D4
:104FF00000EE101A2968B8EE400A01F6242181ED6E
:10500000000A90F8FC0440F28A2101280CD0022802
:1050100012D0032818D004281ED0052824D0062832
:105020002AD0072830D036E000912C4A512101A81F
:10503000AB68FBF7AAFC2EE00091294A512101A898
:10504000AB68FBF7A2FC26E00091264A512101A89B
:10505000AB68FBF79AFC1EE00091234A512101A89E
:10506000AB68FBF792FC16E00091204A512101A8A1
:10507000AB68FBF78AFC0EE000911D4A512101A8A4
:10508000AB68FBF782FC06E000911A4A512101A8A7
:10509000AB68FBF77AFCD5E9001240F28A2301A83D
:1050A000FBF7DAF96868D4F8003000F1C801002095
:1050B0004FF41672B1EC010A03EB4004401C521E7F
:1050C000BCEEC00A10EE10CAA4F828C0F2D105B098
:1050D00030BD0000F80300209C02002040FF0208C1
:1050E00084000308C80103080C03030850040308E4
:1050F00094050308D806030870B5594C574D84B081
:105100002068296800F58052B2F9F634B2F9F82423
:105110001A4400EB42004FF4A273B0F8D82400EE1A
:10512000102AB8EE400A81ED000AB0F8DA2400F542
:105130009B6000BF00EE102A30F804CFB8EE400AA2
:1051400081ED010A00EE10CA4288B8EE400A81EDF6
:10515000020A08315B1EEDD1216801F58050B0F9DB
:10516000F624B0F9F8341A4402F2892201EB420124
:105170003C4AB1F8D81400EE101A2968B8EE400A7B
:1051800001F6242181ED000A90F8FD0440F28A2105
:1051900001280CD0022812D0032818D004281ED0D1
:1051A000052824D006282AD0072830D036E00091E0
:1051B00013682D4A512101A8FBF7E7FB2EE000916F
:1051C00013682A4A512101A8FBF7DFFB26E0009172
:1051D0001368274A512101A8FBF7D7FB1EE0009175
:1051E0001368244A512101A8FBF7CFFB16E0009178
:1051F0001368214A512101A8FBF7C7FB0EE000917B
:1052000013681E4A512101A8FBF7BFFB06E000917D
:1052100013681B4A512101A8FBF7B7FB194E40F256
:105220008A2301A832682968FBF716F93068D4F898
:10523000003000F1C80100204FF41672B1EC010AF1
:1052400003EB4004401C521EBCEEC00A10EE10CA14
:10525000A4F828C0F2D104B070BD0000F80300200B
:105260009C0200200004002064F60208A8F702084F
:10527000ECF8020830FA020874FB0208B8FC0208D5
:10528000FCFD0208FC03002070B5594C574D84B05A
:105290002068296800F58052B2F9F634B2F9F82492
:1052A0001A4400EB42004FF4A273B0F8D82400EE89
:1052B000102AB8EE400A81ED000AB0F8DA2400F5B1
:1052C0009B6000BF00EE102A30F804CFB8EE400A11
:1052D00081ED010A00EE10CA4288B8EE400A81ED65
:1052E000020A08315B1EEDD1216801F58050B0F94A
:1052F000F624B0F9F8341A4402F2892201EB420193
:105300003C4AB1F8D81400EE101A2968B8EE400AE9
:1053100001F6242181ED000A90F8FE0440F28A2172
:1053200001280CD0022812D0032818D004281ED03F
:10533000052824D006282AD0072830D036E000914E
:1053400013682D4A512101A8FBF71FFB2EE00091A5
:1053500013682A4A512101A8FBF717FB26E00091A8
:105360001368274A512101A8FBF70FFB1EE00091AB
:105370001368244A512101A8FBF707FB16E00091AE
:105380001368214A512101A8FBF7FFFA0EE00091B2
:1053900013681E4A512101A8FBF7F7FA06E00091B5
:1053A00013681B4A512101A8FBF7EFFA194E40F28E
:1053B0008A2301A832682968FBF74EF83068D4F8D0
:1053C000003000F1C80100204FF41672B1EC010A60
:1053D00003EB4004401C521EBCEEC00A10EE10CA83
:1053E000A4F828C0F2D104B070BD0000F80300207A
:1053F0009C0200200004002088ED0208CCEE020888
:1054000010F0020854F1020898F20208DCF30208D6
:1054100020F50208FC03002084B013F0CFFB00232A
:1054200040F21A42194612F07FFFFE4DFE4C4FF03B
:10543000010B4FF0000A286207F0DCF80646A86866
:105440004FF400418160F948006825F09EF9A86892
:10545000C17800291CBF8079012840F01581F448EB
:10546000D0E90010CDE9001008F082FB684609F091
:105470006AF828221146686A07F0BEFD6B6995F943
:10548000017000214FF4167203F5805003EB410CBC
:105490004FF06409BCF82880491C08FB09F834F86F
:1054A0002790521EB8FBF9F9B0F8FA84C144C9F547
:1054B000DC7909EB4808A8F5F078ACF82880E5D14C
:1054C000AA6995F9013000204FF4167102F5805950
:1054D00002EB40074FF06408B7F828C0401C0CFBF3
:1054E00008FC34F82380491EBCFBF8F8B9F8FAC46C
:1054F000E044C8F5DC7808EB4C0CACF5F07CA7F880
:1055000028C0E5D14FF6FF7009F029F895F90000A1
:105510000A2816DA686928231A464FF416712830CB
:1055200006F0FCF9688870BB4FF47F4009F017F86B
:10553000A86928231A464FF41671283006F0EEF9B0
:1055400027E068694FF028031A46416AB1F5167FD3
:1055500003D2283006F0E2F904E04FF41671283047
:1055600006F0DCF9688870B94FF47F4008F0F7FF67
:10557000A8694FF028031A46416AB1F5167F03D295
:10558000283006F0CBF904E04FF41671283006F00D
:10559000C5F9A86869884078084347D195F90000A3
:1055A0000A2843DAE8694FF49672011F9FEDA10AB9
:1055B000D1ED010A60EE800AC1ED010AD1ED020AC7
:1055C00060EE800AC1ED020A0831521EF0D1D0ED22
:1055D000000AB6EE000A002120EE800A40F25622B0
:1055E000F1EE040A80ED000A9FED931AD0ED001A47
:1055F00081EEA00AA0EC010A31EE400AD5F814C0F1
:105600000CEB410CBCEEC00A491C521E10EE103AC5
:10561000ACF82C30EAD1FF2008F0A1FF68692823FC
:105620001A4640F256212C3006F078F9A8688078A6
:10563000012808BFFEF786FEA8688078022808BF08
:10564000FFF78CF9002008F07EFF08F007FB4FF60B
:10565000FF7008F084FFE86840F273220721038896
:10566000764806F09FFD06F0C5FFE968CA68801A13
:10567000B0F57A7F05D2088840F27222282106F020
:10568000FFFAA86880F806A006F0B4FF811B6C4AF8
:1056900095F9000032F81000884284BF401A05F0E6
:1056A0004FFC20F02BFF00283FF4C6AE0D2800F081
:1056B000648117DC012829D0042853D007287AD028
:1056C0000A287FF4B9AEA868407901286AD0022878
:1056D00069D0052868D0062867D0072800F0FE802A
:1056E00000F043B9102800F0E381132800F0508245
:1056F00016287FF4A1AEA8684179491CC9B241714E
:10570000082908BF80F805A04E483BE013F056FA80
:105710004D490226CDF80CA00090CDE90161002191
:105720004FF4F0734FF44872084612F02DFE07460E
:1057300013F014F8384614F09BF911F0F1FC002036
:1057400014F096F9384612F015FF13F007F8A86820
:10575000C178012908BF80F806B06888012808BF11
:105760006E8069E668880028A8680ED00179E9B1E2
:1057700080F804A0FCF7C2FC02206880A86880F8CA
:1057800006B0324813F0F2FE56E6C17821B180F837
:1057900003A0FCF7B3FCF1E780F803B0FCF78CFC46
:1057A000ECE708E061E06FE080E08AE080F804B0B8
:1057B000FCF782FCE0E76888E0B1A5F802A0A868E1
:1057C00000220179C17040F6FF712148FCF73FFCCF
:1057D000E868BE21018040F2D94101811D4813F0E3
:1057E000C5FE1D4813F0C2FE6888012804BF0220D0
:1057F000688021E6A5F802B0A868C17801716869DF
:1058000000F58050A0F8F8A4144813F0AFFE144837
:1058100040F20141006814F073F9002240F2D941CE
:105820000B481FE08802002030DF0208140000202F
:1058300028DF02080000803A0000C34382DF02082C
:1058400058DF0208C802002041580208B0020020B8
:1058500000220140C0020020B8020020D80200202F
:10586000F8020020FCF7F3FBB2E76878401C40B276
:1058700068700A2804BF0920687040F20141FE48A0
:10588000006814F03DF970E0686900F58050B0F8E8
:10589000FA140A3989B2A0F8FA1428299CBF2821E1
:1058A000A0F8FA14F54813F061FE5EE02869C1889B
:1058B0000288891A09B2C1802829DCBF2821C18049
:1058C00053E0296908890A88801A00B20881B1F971
:1058D00006209042D8BF1046088146E0E86801885B
:1058E0004288891A89B2018028299CBF2821018019
:1058F00089B2C1F1F00100EE101AB8EEC00A80EDD5
:10590000010A95F9011004EB8101498800EE901A13
:10591000F8EE600A60EE200A9FEDD91A80EE810A47
:10592000DFEDD80A60EE200A9FEDD71A80EE810ADB
:1059300080ED010ABCEEC00A10EE101A0181D348B6
:1059400013F014FE688838B102206880E8680022ED
:105950000189CF48FCF77BFB06F04CFEE968C86084
:1059600040F21A41286A14F01AF8A868C17801298F
:105970007FF462AD80F806B05EE5A8684079012842
:1059800002D002280FD021E06878401E40B2687033
:105990000028B8BF85F801A040F20141B648006870
:1059A00014F0AEF812E0686900F58050B0F8FA140F
:1059B0000A3189B2A0F8FA14B1F5DC7F24BF4FF4A4
:1059C000DC71A0F8FA14AD4813F0D0FDA868407956
:1059D000052804D006280FD007281AD062E02869CD
:1059E000C188028811440AB2C280B0F908108A4204
:1059F000D8BF1146C18055E0286902890188114449
:105A000009B20181B1F5DC7FA4BF4FF4DC710181E3
:105A100048E0E86801884288114489B20180B1F504
:105A2000DB7F84BF40F2B711018089B2C1F1F00180
:105A300000EE101AB8EEC00A80ED010A95F90110C7
:105A400004EB8101498800EE901AF8EE600A20EE1E
:105A5000200A9FED8B1AC0EE010A9FED8A0A20EE04
:105A6000800ADFED890A80EE201A80ED011ABCEE73
:105A7000C10A10EE101A0181844813F077FD68887E
:105A800038B102206880E868002201898048FCF76C
:105A9000DEFA06F0AFFDE968C86040F21A41286AF4
:105AA00013F07DFFA868C17801297FF4C5AC61E7D8
:105AB000A868407930B1032831D004283AD00728AB
:105AC00045D05FE02878401C40B22870152804BFFC
:105AD00014202870FCF7F0FAFCF710FB6D48006802
